:100000000C9434000C943E000C943E000C943E0082
:100010000C943E000C943E000C943E000C943E0068
:100020000C943E000C943E000C943E000C943E0058
:100030000C943E000C943E000C943E000C943E0048
:100040000C943E000C943E000C943E000C943E0038
:100050000C943E000C943E000C943E000C943E0028
:100060000C943E000C943E0011241FBECFEFD8E04C
:10007000DEBFCDBF0E9440000C9487000C940000AE
:1000800088E387B980E090E028B1277C28B98130E7
:10009000910519F17CF40097B9F7459A2FEF83ED9C
:1000A00090E3215080409040E1F700C0000081E0E3
:1000B00090E0EACF82309105E9F08330910521F795
:1000C00088B1886188B92FEF89E698E12150804096
:1000D0009040E1F700C00000D5CF449A2FEF89E6A9
:1000E00098E1215080409040E1F700C0000082E09C
:1000F00090E0CACF439A2FEF83ED90E321508040E8
:100100009040E1F700C0000083E090E0BDCFF8949C
:02011000FFCF1F
:00000001FF
