:100000000C943E000C9448000C9448000C9448005A
:100010000C9448000C9448000C9448000C94480040
:100020000C9448000C9448000C9448000C94480030
:100030000C9448000C9448000C9448000C94480020
:100040000C9448000C9448000C9448000C94480010
:100050000C9448000C9448000C9448000C94480000
:100060000C9448000C9448000C9448000C944800F0
:100070000C9448000C9448000C94480011241FBEB6
:10008000CFEFD8E0DEBFCDBF0E948D000C94E4001E
:100090000C940000ECE7F0E0808180648083EAE764
:1000A000F0E080818760808380818068808308950C
:1000B00090917C00987F90937C0090917C00877059
:1000C000982B90937C0080917A00806480937A00D2
:1000D00080917A0086FDFCCF809178002091790094
:1000E00090E0922B0895E0E8F0E0208123622083E5
:1000F000E1E8F0E02081296120839C0140E050E0AC
:1001000060E472E48FE090E00E94A3002150310986
:100110003093890020938800089511B88FEF82B939
:100120008AB988EE93E00E9473000E944A00109200
:100130008B0010928A0080E00E94580090938B0000
:1001400080938A00F8CF052E97FB1EF400940E943E
:10015000BA0057FD07D00E94C20007FC03D04EF43E
:100160000C94BA0050954095309521953F4F4F4FD4
:100170005F4F089590958095709561957F4F8F4F53
:100180009F4F0895A1E21A2EAA1BBB1BFD010DC0B3
:10019000AA1FBB1FEE1FFF1FA217B307E407F50737
:1001A00020F0A21BB30BE40BF50B661F771F881F13
:1001B000991F1A9469F760957095809590959B01A9
:0C01C000AC01BD01CF010895F894FFCF01
:00000001FF
